:020000020000FC
:040000000C9422003A
:100040000C94C2000FEF0DBF08E00EBFF89400E063
:100050000093C1000FEF0AB900E00BB90FE004B93B
:1000600000E005B907E007B907E008B902E000932E
:10007000680007E000936B0001E000936E0000E869
:100080000093610002E00093610005E005BD02EB12
:1000900006BDE6E9F0E03F065B4F666D7D077F67D2
:1000A000777C585E797194919BB910E018B940E063
:1000B00050E060E070E080E020E07894423309F0A6
:1000C0001CC040E0593011F05395F8CF50E0653036
:1000D00011F06395F3CF50E060E0793011F0739543
:1000E000EDCF50E060E070E0823011F08395E6CF14
:1000F00050E060E070E080E0E1CF203009F00EC019
:1001000021E000E00BB92B982A982998289AE6E973
:10011000F0E0E51FF11D94919BB9D0CF213009F09B
:100120000EC022E000E00BB92B982A98299A289853
:10013000E6E9F0E0E61FF11D94919BB9BFCF2230B4
:1001400009F00EC023E000E00BB92B982A9A2998F9
:100150002898E6E9F0E0E71FF11D94919BB9AECF36
:10016000233009F0ABCF20E000E00BB92B9A2A989E
:1001700029982898E6E9F0E0E81FF11D94919BB9D1
:0E0180009DCF9CCFA89A02EB06BD4395189523
:00000001FF
