:020000020000FC
:040000000C9422003A
:100040000C942E020FEF0DBF08E00EBFF89400E0F5
:100050000093C1000FEF0AB900E00BB90FE004B93B
:1000600000E005B907E007B907E008B902E000932E
:1000700068000FE000936B0001E000936E0000E861
:100080000093610002E00093610005E005BD02EB12
:1000900006BDE6E9F0E03F065B4F666D7D077F67D2
:1000A000777C585E797114911BB920E031E040E013
:1000B00050E091E0509300015093010150930201F0
:1000C000509303015093040150E05093050151E017
:1000D0005093060155E05093070152E050930801F8
:1000E0005093090150930A0150930B0150930C0156
:1000F00078944931C1F0403091F0493191F030307D
:1001000049F0313041F0323039F0333031F03430B1
:1001100029F0EFCFFAC04DC1ECCFEBCFEACF91E0A1
:10012000EECF90E0ECCF40E047C0509100015B3350
:1001300021F0539550930001DCCF50E05093000123
:1001400050910101593021F0539550930101D1CFC5
:1001500050E050930001509301015091020155303D
:1001600021F0539550930201C4CF50E05093000109
:100170005093010150930201509103015330B9F0A3
:1001800050910301593021F0539550930301B1CFA1
:1001900050E050930001509301015093020150939D
:1001A000030150910401539550930401A2CF509143
:1001B0000401523009F0E4CF50E050930001509315
:1001C000010150930201509303015093040100C0B8
:1001D00050910701583009F010C050910801523079
:1001E00009F00BC050910601503009F006C0509143
:1001F0000501523009F001C053C050910701503041
:1002000009F018C050910801533009F013C0509103
:100210000601513009F004C050910501513049F0F8
:1002200050910501543029F0563019F0593009F039
:1002300001C036C050910701513009F01EC05091E5
:100240000801533009F019C050910601513009F0EE
:1002500006C050910501503079F0523069F050914C
:100260000501513049F0533039F0553029F05730FD
:1002700019F0583009F001C013C0509107015930EE
:1002800031F05091070153955093070132CF50E060
:10029000509307015091080153955093080129CFBD
:1002A00051E05093070150E050930801509105012F
:1002B000523009F01AC050910601513009F015C0B2
:1002C00051E0509307015093050150E0509308010D
:1002D0005093060150930001509301015093020185
:1002E000509303015093040104CF509105015930FC
:1002F00021F0539550930501FCCE50E05093050139
:1003000051E050930601F5CEF4CE203009F010C034
:1003100021E000E00BB9289A299A2A9A2B98E6E95D
:10032000F0E050910101E51FF11D14911BB9E1CEE0
:10033000213009F010C022E000E00BB9289A299A78
:100340002A982B9AE6E9F0E050910201E51FF11D91
:1003500014911BB9CECE223009F018C023E000E082
:100360000BB9289A29982A9A2B9AE6E9F0E050913D
:100370000301E51FF11D14911BB9913019F0903064
:1003800019F0B7CE5F9AB5CE5F98B3CE233009F09F
:10039000B0CE20E000E00BB92898299A2A9A2B9A2F
:1003A000E6E9F0E050910401E51FF11D14911BB93D
:1003B000A0CE203009F010C021E000E00BB9289A4F
:1003C000299A2A9A2B98E6E9F0E050910501E51F59
:1003D000F11D14911BB98DCE213009F010C022E01F
:1003E00000E00BB9289A299A2A982B9AE6E9F0E0BE
:1003F00050910601E51FF11D14911BB97ACE2230F0
:1004000009F018C023E000E00BB9289A29982A9A2D
:100410002B9AE6E9F0E050910701E51FF11D1491D8
:100420001BB9913019F0903019F063CE5F9A61CE0C
:100430005F985FCE233009F05CCE20E000E00BB97E
:100440002898299A2A9A2B9AE6E9F0E05091080117
:10045000E51FF11D14911BB94CCE4BCEA89A02EBAF
:0604600006BD439518954E
:00000001FF
