:020000020000FC
:040000000C9422003A
:100040000C942F010FEF0DBF08E00EBFF89400E0F5
:100050000093C1000FEF0AB900E00BB90FE004B93B
:1000600000E005B907E007B907E008B902E000932E
:1000700068000FE000936B0001E000936E0000E861
:100080000093610002E00093610005E005BD02EB12
:1000900006BDE6E9F0E03F065B4F666D7D077F67D2
:1000A000777C585E797114911BB920E030E040E014
:1000B00050E091E0509300015093010150930201F0
:1000C000509303015093040150930501509306018E
:1000D000509307015093080178944233C1F04030A7
:1000E00091F0493191F0303049F0313041F0323007
:1000F00039F0333031F0343029F0EFCF5BC0EDCF41
:10010000ECCFEBCFEACF91E0EECF90E0ECCF40E048
:10011000509100015B3321F0539550930001DDCFE6
:1001200050E05093000150910101593021F0539556
:1001300050930101D2CF50E0509300015093010140
:1001400050910201553021F0539550930201C5CFD3
:1001500050E05093000150930101509302015091DF
:1001600003015330B9F050910301593021F05395F8
:1001700050930301B2CF50E050930001509301011E
:1001800050930201509303015091040153955093F1
:100190000401A3CF50910401523009F0E4CF50E0A4
:1001A00050930001509301015093020150930301B9
:1001B00050930401203009F010C021E000E00BB999
:1001C000289A299A2A9A2B98E6E9F0E050910101A1
:1001D000E51FF11D14911BB980CF213009F010C02B
:1001E00022E000E00BB9289A299A2A982B9AE6E98E
:1001F000F0E050910201E51FF11D14911BB96DCF84
:10020000223009F018C023E000E00BB9289A2998A1
:100210002A9A2B9AE6E9F0E050910301E51FF11DBF
:1002200014911BB9913019F0903019F056CF5F9AA4
:1002300054CF5F9852CF233009F04FCF20E000E039
:100240000BB92898299A2A9A2B9AE6E9F0E050915E
:100250000401E51FF11D14911BB93FCF3ECFA89AB1
:0802600002EB06BD4395189561
:00000001FF
