:020000020000FC
:040000000C9422003A
:040010000C946103E8
:100040000C945C030FEF0DBF08E00EBFF89400E0C6
:100050000093C1000FEF0AB900E00BB90FE004B93B
:1000600000E005B90FE007B90FE008B902E000931E
:1000700068000FE000936C0001E000936E0000E860
:100080000093610002E00093610005E005BD02EB12
:1000900006BDE6E9F0E03F065B4F666D7D077F67D2
:1000A000777C585E797114911BB920E030E040E014
:1000B00050E091E0509300015093010150930201F0
:1000C000509303015093040151E05093050150E017
:1000D0005093060151E05093070150E050930801FE
:1000E0005093090150930A0150930B0150930C0156
:1000F00050930D0151E050930E015093100150E0C8
:1001000050930F015093110150E05093120153E0AE
:100110005093130156E05093140150E05093150191
:1001200078944233C1F0403091F0493191F0303051
:1001300049F0313041F0323039F0333031F0343081
:1001400029F0EFCFFFC054C1AAC102C25AC291E048
:10015000EECF90E0ECCF40E0323019F3333009F3CA
:100160003430F9F2509100015B3321F053955093F4
:100170000001D7CF50E05093000150910101593058
:1001800021F0539550930101CCCF50E050930001E2
:100190005093010150910201553021F05395509335
:1001A0000201BFCF50E050930001509301015093E2
:1001B0000201509103015330B9F0509103015930BD
:1001C00021F0539550930301ACCF50E050930001C0
:1001D0005093010150930201509303015091040187
:1001E0005395509304019DCF50910401523009F072
:1001F000E4CF50E05093000150930101509302016D
:10020000509303015093040100C0509107015830EE
:1002100009F010C050910801523009F00BC0509104
:100220000601503009F006C050910501523009F026
:1002300001C053C050910701503009F018C05091CF
:100240000801533009F013C050910601513009F0F4
:1002500004C050910501513049F0509105015430CE
:1002600029F0563019F0593009F001C036C05091CC
:100270000701513009F01EC050910801533009F0B8
:1002800019C050910601513009F006C05091050186
:10029000503079F0523069F050910501513049F0F9
:1002A000533039F0553029F0573019F0583009F0F3
:1002B00001C013C050910701593031F0509107012E
:1002C0005395509307012DCF50E050930701509163
:1002D000080153955093080124CF51E05093070132
:1002E00050E05093080150910501523009F01AC0B6
:1002F00050910601513009F015C051E050930701AB
:100300005093050150E0509308015093060150931B
:100310000001509301015093020150930301509347
:100320000401FFCE50910501593021F053955093AF
:100330000501F7CE50E05093050151E050930601BE
:10034000F0CEEFCE449A4598203009F010C021E05D
:1003500000E00BB9289A299A2A9A2B98E6E9F0E04E
:1003600050910101E51FF11D14911BB9DACE213026
:1003700009F010C022E000E00BB9289A299A2A98C7
:100380002B9AE6E9F0E050910201E51FF11D14916E
:100390001BB9C7CE223009F018C023E000E00BB92A
:1003A000289A29982A9A2B9AE6E9F0E050910301BD
:1003B000E51FF11D14911BB9913019F0903019F01F
:1003C000B0CE5F9AAECE5F98ACCE233009F0A9CE06
:1003D00020E000E00BB92898299A2A9A2B9AE6E99E
:1003E000F0E050910401E51FF11D14911BB999CE65
:1003F000459A4498203009F010C021E000E00BB984
:10040000289A299A2A9A2B98E6E9F0E0509105015A
:10041000E51FF11D14911BB984CE213009F010C0E5
:1004200022E000E00BB9289A299A2A982B9AE6E94B
:10043000F0E050910601E51FF11D14911BB971CE3A
:10044000223009F018C023E000E00BB9289A29985F
:100450002A9A2B9AE6E9F0E050910701E51FF11D79
:1004600014911BB9913019F0903019F05ACE5F9A5F
:1004700058CE5F9856CE233009F053CE20E000E0EE
:100480000BB92898299A2A9A2B9AE6E9F0E050911C
:100490000801E51FF11D14911BB943CE42CE203057
:1004A00009F010C021E000E00BB9289A299A2A9A95
:1004B0002B98E6E9F0E050910A01E51FF11D149137
:1004C0001BB9EDCF213009F010C022E000E00BB9DC
:1004D000289A299A2A982B9AE6E9F0E050910B0184
:1004E000E51FF11D14911BB9DACF223009F01CC0B1
:1004F00023E000E00BB9289A29982A9A2B9AE6E97A
:10050000F0E050910C01E51FF11D14911BB99130E1
:1005100019F0903029F0C3CF4598449A5F9A01CEE4
:10052000459844985F98FDCD233009F0B8CF20E07E
:1005300000E00BB92898299A2A9A2B9AE6E9F0E06C
:1005400050910D01E51FF11D14911BB9A8CFA7CF44
:10055000203009F010C021E000E00BB9289A299A58
:100560002A9A2B98E6E9F0E050910E01E51FF11D63
:1005700014911BB9EDCF213009F010C022E000E04A
:100580000BB9289A299A2A982B9AE6E9F0E050911B
:100590000F01E51FF11D14911BB9DACF223009F0CC
:1005A0001CC023E000E00BB9289A29982A9A2B9ABC
:1005B000E6E9F0E050911001E51FF11D14911BB91F
:1005C000913019F0903029F0C3CF459A44985F9A42
:1005D000A8CD459844985F98A4CD233009F0B8CFB2
:1005E00020E000E00BB92898299A2A9A2B9AE6E98C
:1005F000F0E050911101E51FF11D14911BB9A8CF36
:10060000A7CF45984498203009F010C021E000E0C1
:100610000BB9289A299A2A9A2B98E6E9F0E050918A
:100620001201E51FF11D14911BB9EBCF213009F028
:1006300010C022E000E00BB9289A299A2A982B9A38
:10064000E6E9F0E050911301E51FF11D14911BB98B
:10065000D8CF223009F01CC023E000E00BB9289A63
:1006600029982A9A2B9AE6E9F0E050911401E51FA7
:10067000F11D14911BB9913019F0903029F0C1CFC0
:10068000459A449A5F9A4DCD459844985F9849CDD4
:10069000233009F0B6CF20E000E00BB92898299A62
:1006A0002A9A2B9AE6E9F0E050911501E51FF11D19
:1006B00014911BB9A6CFA5CFA89A02EB06BD43950E
:1006C0001895309B07C0319B67C0329B8EC1339B0E
:1006D000ADC21895303009F002C031E018953130C4
:1006E00009F026C032E05091000150930901509169
:1006F000010150930A015091020150930B01509156
:10070000030150930C015091040150930D0150913D
:10071000050150930E015091060150930F01509125
:100720000701509310015091080150931101189541
:10073000323009F002C033E01895333009F002C0BE
:1007400034E01895343009F0ECCC30E050910901D8
:100750005093000140E050910E01509305015091DB
:100760000F015093060150911001509307015091D1
:1007700011015093080150910A01509301015091C9
:100780000B015093020150910C01509303015091C1
:100790000D01509304011895323009F046C0509174
:1007A0000A01593031F050910A01539550930A01D2
:1007B000189550E050930A0150910B01553031F0DB
:1007C00050910B01539550930B01189550E05093A5
:1007D0000A0150930B0150910C01533009F004C0F1
:1007E00050910D015230B9F050910C01593031F057
:1007F00050910C01539550930C01189550E0509373
:100800000A0150930B0150930C0150910D01539527
:1008100050930D01189550E050930A0150930B012D
:1008200050930C0150930D011895333009F093C08B
:1008300050911001583009F010C050911101523000
:1008400009F00BC050910F01503009F006C05091D3
:100850000E01523009F001C053C0509110015030C8
:1008600009F018C050911101533009F013C0509194
:100870000F01513009F004C050910E01513049F080
:1008800050910E01543029F0563019F0593009F0CA
:1008900001C036C050911001513009F01EC0509176
:1008A0001101533009F019C050910F01513009F076
:1008B00006C050910E01503079F0523069F05091DD
:1008C0000E01513049F0533039F0553029F057308E
:1008D00019F0583009F001C013C05091100159307F
:1008E00031F050911001539550931001189550E03C
:1008F0005093100150911101539550931101189587
:1009000051E05093100150E05093110150910E01AD
:10091000523009F010C050910F01513009F00BC056
:1009200051E05093100150930E0150E0509311018B
:1009300050930F01189550910E01593021F05395A5
:1009400050930E01189550E050930E0151E05093D2
:100950000F0118951895343009F01895509112012F
:10096000593031F05091120153955093120118955E
:1009700050E05093120150911301553031F05091D5
:100980001301539550931301189550E050931201A1
:100990005093130150911401533009F004C0509149
:1009A00015015230B9F050911401593031F0509185
:1009B0001401539550931401189550E0509312016F
:1009C0005093130150931401509115015395509376
:1009D0001501189550E05093120150931301509354
:1009E00014015093150118951895323009F047C03D
:1009F00050910A01503031F050910A015A955093AC
:100A00000A01189559E050930A0150910B0150309A
:100A100031F050910B015A9550930B01189559E004
:100A200050930A0155E050930B0150910C01503046
:100A300031F050910C015A9550930C01189559E0E2
:100A400050930A0155E050930B0159E050930C016B
:100A500050910D01503031F050910D015A95509345
:100A60000D01189559E050930A0155E050930B0180
:100A700053E050930C0152E050930D011895333020
:100A800009F089C050911001513009F00DC050910A
:100A90001101503079F059E050931001509111013B
:100AA0005A95509311011895509110015A955093F1
:100AB0001001189550910F01503009F028C0509145
:100AC0000E01513009F00DC051E05093100153E078
:100AD0005093110152E050930E0151E050930F01D9
:100AE000189550910E01523079F0533079F054300E
:100AF00059F0553051F0563039F0573031F0583008
:100B000019F0593009F003C02DC00FC037C0509103
:100B10000F01513009F0189550910E015030A9F392
:100B2000513091F3523089F3189550910F015130A3
:100B300009F012C050910E01503009F00DC053E081
:100B40005093110150E05093100159E050930E0161
:100B500050E050930F01189550910E015A95509303
:100B60000E01189553E05093110150E0509310017D
:100B700050910E015A9550930E01189552E05093E2
:100B8000110158E05093100150E050930F0152E0D2
:100B900050930E011895343009F0189550911201B8
:100BA000503031F0509112015A955093120118951E
:100BB00059E05093120150911301503031F050918F
:100BC00013015A9550931301189559E0509312014F
:100BD00055E05093130150911401503031F0509171
:100BE00014015A9550931401189559E0509312012D
:100BF00055E05093130159E05093140150911501A1
:100C0000503031F0509115015A95509315011895B7
:100C100059E05093120155E05093130153E0509363
:0E0C2000140152E0509315011895189518957F
:00000001FF
