:020000020000FC
:040000000C9422003A
:040010000C944B03FE
:100040000C9446030FEF0DBF08E00EBFF89400E0DC
:100050000093C1000FEF0AB900E00BB90FE004B93B
:1000600000E005B90FE007B90FE008B902E000931E
:1000700068000FE000936C0001E000936E0000E860
:100080000093610002E00093610005E005BD02EB12
:1000900006BDE6E9F0E03F065B4F666D7D077F67D2
:1000A000777C585E797114911BB920E030E040E014
:1000B00050E091E0509300015093010150930201F0
:1000C000509303015093040151E05093050150E017
:1000D0005093060151E05093070150E050930801FE
:1000E0005093090150930A0150930B0150930C0156
:1000F00050930D0151E050930E015093100150E0C8
:1001000050930F015093110150931201509313011A
:10011000509314015093150178944233C1F040304C
:1001200091F0493191F0303049F0313041F03230C6
:1001300039F0333031F0343029F0EFCFFFC052C105
:10014000A6C1FAC14EC291E0EECF90E0ECCF40E004
:10015000323019F3333009F33430F9F250910001A1
:100160005B3321F0539550930001D7CF50E050936B
:10017000000150910101593021F053955093010134
:10018000CCCF50E0509300015093010150910201F7
:10019000553021F0539550930201BFCF50E050935A
:1001A000000150930101509302015091030153301B
:1001B000B9F050910301593021F053955093030148
:1001C000ACCF50E0509300015093010150930201D5
:1001D00050930301509104015395509304019DCF16
:1001E00050910401523009F0E4CF50E050930001E7
:1001F0005093010150930201509303015093040165
:1002000000C050910701583009F010C0509108010A
:10021000523009F00BC050910601503009F006C071
:1002200050910501523009F001C053C050910701AF
:10023000503009F018C050910801533009F013C034
:1002400050910601513009F004C050910501513020
:1002500049F050910501543029F0563019F05930C9
:1002600009F001C036C050910701513009F01EC09D
:1002700050910801533009F019C0509106015130D6
:1002800009F006C050910501503079F0523069F004
:1002900050910501513049F0533039F0553029F073
:1002A000573019F0583009F001C013C050910701C0
:1002B000593031F0509107015395509307012DCFDC
:1002C00050E0509307015091080153955093080155
:1002D00024CF51E05093070150E050930801509112
:1002E0000501523009F01AC050910601513009F051
:1002F00015C051E0509307015093050150E0509311
:10030000080150930601509300015093010150934E
:1003100002015093030150930401FFCE5091050157
:10032000593021F0539550930501F7CE50E050938A
:10033000050151E050930601F0CEEFCE203009F0D8
:1003400010C021E000E00BB9289A299A2A9A2B982C
:10035000E6E9F0E050910101E51FF11D14911BB990
:10036000DCCE213009F010C022E000E00BB9289A61
:10037000299A2A982B9AE6E9F0E050910201E51FAC
:10038000F11D14911BB9C9CE223009F018C023E029
:1003900000E00BB9289A29982A9A2B9AE6E9F0E00E
:1003A00050910301E51FF11D14911BB9913019F013
:1003B000903019F0B2CE5F9AB0CE5F98AECE2330B7
:1003C00009F0ABCE20E000E00BB92898299A2A9AD0
:1003D0002B9AE6E9F0E050910401E51FF11D14911C
:1003E0001BB99BCE203009F010C021E000E00BB912
:1003F000289A299A2A9A2B98E6E9F0E0509105016B
:10040000E51FF11D14911BB988CE213009F010C0F1
:1004100022E000E00BB9289A299A2A982B9AE6E95B
:10042000F0E050910601E51FF11D14911BB975CE46
:10043000223009F018C023E000E00BB9289A29986F
:100440002A9A2B9AE6E9F0E050910701E51FF11D89
:1004500014911BB9913019F0903019F05ECE5F9A6B
:100460005CCE5F985ACE233009F057CE20E000E0F2
:100470000BB92898299A2A9A2B9AE6E9F0E050912C
:100480000801E51FF11D14911BB947CE46CE20305F
:1004900009F010C021E000E00BB9289A299A2A9AA5
:1004A0002B98E6E9F0E050910A01E51FF11D149147
:1004B0001BB9EDCF213009F010C022E000E00BB9EC
:1004C000289A299A2A982B9AE6E9F0E050910B0194
:1004D000E51FF11D14911BB9DACF223009F018C0C5
:1004E00023E000E00BB9289A29982A9A2B9AE6E98A
:1004F000F0E050910C01E51FF11D14911BB99130F2
:1005000019F0903019F0C3CF5F9A07CE5F9805CEEF
:10051000233009F0BCCF20E000E00BB92898299ADD
:100520002A9A2B9AE6E9F0E050910D01E51FF11DA2
:1005300014911BB9ACCFABCF203009F010C021E033
:1005400000E00BB9289A299A2A9A2B98E6E9F0E05C
:1005500050910E01E51FF11D14911BB9EDCF213013
:1005600009F010C022E000E00BB9289A299A2A98D5
:100570002B9AE6E9F0E050910F01E51FF11D14916F
:100580001BB9DACF223009F018C023E000E00BB924
:10059000289A29982A9A2B9AE6E9F0E050911001BE
:1005A000E51FF11D14911BB9913019F0903019F02D
:1005B000C3CF5F9AB2CD5F98B0CD233009F0BCCFE6
:1005C00020E000E00BB92898299A2A9A2B9AE6E9AC
:1005D000F0E050911101E51FF11D14911BB9ACCF52
:1005E000ABCF203009F010C021E000E00BB9289A11
:1005F000299A2A9A2B98E6E9F0E050911201E51F1A
:10060000F11D14911BB9EDCF213009F010C022E08B
:1006100000E00BB9289A299A2A982B9AE6E9F0E08B
:1006200050911301E51FF11D14911BB9DACF22304F
:1006300009F018C023E000E00BB9289A29982A9AFB
:100640002B9AE6E9F0E050911401E51FF11D149199
:100650001BB9913019F0903019F0C3CF5F9A5DCD7E
:100660005F985BCD233009F0BCCF20E000E00BB9F0
:100670002898299A2A9A2B9AE6E9F0E050911501D8
:10068000E51FF11D14911BB9ACCFABCFA89A02EBBB
:1006900006BD43951895309B07C0319B1895329B3A
:1006A0001895339B18951895303009F002C031E049
:1006B0001895313009F026C032E050910001509376
:1006C00009015091010150930A0150910201509388
:1006D0000B015091030150930C0150910401509370
:1006E0000D015091050150930E0150910601509358
:1006F0000F01509107015093100150910801509340
:1007000011011895323009F002C033E018953330EA
:1007100009F002C034E01895343009F0FECC30E026
:10072000509109015093000140E050910E01509307
:10073000050150910F015093060150911001509303
:100740000701509111015093080150910A015093F3
:10075000010150910B015093020150910C015093F3
:0C076000030150910D0150930401189505
:00000001FF
