:020000020000FC
:040000000C9422003A
:100040000C94C3000FEF0DBF08E00EBFF89400E062
:100050000093C1000FEF0AB900E00BB90FE004B93B
:1000600000E005B907E007B907E008B902E000932E
:10007000680007E000936B0001E000936E0000E869
:100080000093610002E00093610005E005BD02EB12
:1000900006BDE6E9F0E03F065B4F666D7D077F67D2
:1000A000777C585E797114911BB940E050E060E0B4
:1000B00070E080E020E07894413009F01FC040E01B
:1000C000593011F05395F8CF50E0653011F0639539
:1000D000F3CF50E060E0733049F0793011F0739560
:1000E000EBCF50E060E070E08395E6CF823009F01E
:1000F000F4CF50E060E070E080E0DECF203009F027
:100100000EC021E000E00BB9289A299A2A9A2B9870
:10011000E6E9F0E0E51FF11D14911BB9CDCF2130C8
:1001200009F00EC022E000E00BB9289A299A2A981B
:100130002B9AE6E9F0E0E61FF11D14911BB9BCCF44
:10014000223009F00EC023E000E00BB9289A29986C
:100150002A9A2B9AE6E9F0E0E71FF11D14911BB9EA
:10016000ABCF233009F0A8CF20E000E00BB92898EE
:10017000299A2A9A2B9AE6E9F0E0E81FF11D1491DA
:100180001BB99ACF99CFA89A02EB06BD4395189553
:00000001FF
