:020000020000FC
:040000000C9422003A
:100040000C94E0000FEF0DBF08E00EBFF89400E045
:100050000093C1000FEF0AB900E00BB90FE004B93B
:1000600000E005B907E007B907E008B902E000932E
:10007000680007E000936B0001E000936E0000E869
:100080000093610002E00093610005E005BD02EB12
:1000900006BDE6E9F0E03F065B4F666D7D077F67D2
:1000A000777C585E797114911BB940E050E060E0B4
:1000B00070E080E091E0A0E0B1E0C0E0D0E020E0BE
:1000C0007894423349F0403019F0493119F02BC08F
:1000D00091E029C090E027C040E0DB3311F0D395D8
:1000E000F0CFD0E0593011F05395EBCF50E0D0E095
:1000F000653011F06395E5CF50E060E0D0E07330FB
:1001000051F0793011F07395DCCF50E060E070E091
:10011000D0E08395D6CF823009F0F3CF50E060E095
:1001200070E080E0D0E0203009F00EC021E000E077
:100130000BB9289A299A2A9A2B98E6E9F0E0E51F4C
:10014000F11D14911BB9BDCF213009F00EC022E082
:1001500000E00BB9289A299A2A982B9AE6E9F0E050
:10016000E61FF11D14911BB9ACCF223009F016C067
:1001700023E000E00BB9289A29982A9A2B9AE6E9FD
:10018000F0E0E71FF11D14911BB9913019F0903088
:1001900019F097CF5F9A95CF5F9893CF233009F0EE
:1001A00090CF20E000E00BB92898299A2A9A2B9A40
:1001B000E6E9F0E0E81FF11D14911BB982CF81CF71
:0A01C000A89A02EB06BD43951895BE
:00000001FF
